:10000000C00A0020C90000002D0100002D010000E1
:100010002D0100002D0100002D0100000000000056
:100020000000000000000000000000002D010000A2
:100030002D010000000000002D0100002D01000036
:10004000F11800002D010000410E0000690E0000B3
:10005000990D0000ED0D00002D0100002D010000A4
:100060002D0100002D0100002D0100002D010000D8
:100070002D0100002D010000090300007D03000098
:10008000F1030000650400002D0100002D010000B7
:100090002D0100002D0100002D0100002D010000A8
:1000A0002D0100002D0100002D0100002D01000098
:1000B00019190000E51A00002D0100002D010000B3
:1000C00080B500AFBD4680BD80B582B000AF124B99
:1000D0007B60124B3B6007E03B681A1D3A607A6810
:1000E000111D796012681A603A680D4B9A42F3D379
:1000F0000C4B3B6004E03B681A1D3A6000221A601A
:100100003A68094B9A42F6D3FFF7DAFF00F06EFC2B
:10011000BD4602B080BDC046842100000000002022
:100120003806002038060020C006002080B500AF49
:10013000FEE7C04680B500AF04200021012200F098
:10014000A7FE04200121012200F0A2FE04200221CA
:10015000012200F09DFE04200321012200F098FE00
:1001600004200421012200F093FE04200521012235
:1001700000F08EFE04200621012200F089FE0420FA
:100180000721012200F084FEBD4680BD80B500AF8E
:1001900001200B21012200F07BFE01200F21002213
:1001A00000F076FE01200F2100F054FF01200F2106
:1001B00000F070FF0020002100F092FFBD4680BDDE
:1001C00080B500AF00200021032200F061FE002076
:1001D0000121032200F05CFE00200221032200F036
:1001E00057FE00200321032200F052FE00200421CC
:1001F000032200F04DFE00200521032200F048FEFE
:10020000BD4680BD80B500AF03200E21012200F065
:100210003FFEBD4680BDC04680B500AF0220042130
:10022000012200F035FE02200521012200F030FEFF
:1002300002200621012200F02BFE022007210122CC
:1002400000F026FE02200C21012200F021FE0220F7
:100250000D21012200F01CFE02200E21012200F0DF
:1002600017FE02200F21012200F012FEBD4680BDC4
:1002700080B582B000AFFB1D03221A70112000F080
:1002800061FFFB1D1B78181C01210022202300F0B8
:1002900023F9FB1D1B78181C002100F067FBFB1DD8
:1002A0001B78181C002100F081FBFB1D1B78181C1B
:1002B000012100F033FBBD4602B080BD80B582B0A5
:1002C00002AF1E2000F03EFF022300930020002119
:1002D0008022032301F052FB002001F0D7FBBD4632
:1002E00080BDC04680B500AFFFF724FFFFF74EFF8B
:1002F000FFF766FFFFF786FFFFF78EFFFFF7B8FFF8
:10030000FFF7DCFFBD4680BD80B500AF194B1B6811
:100310001B0C1A1C01231340DBB2012B0FD1154B10
:100320001A68802149020A431A60134B5B68002B4C
:1003300005D0114B5A68104B9B68181C90470D4B09
:10034000DB6BDB0A1A1C01231340DBB2012B0FD13C
:10035000084BDA6B802109010A43DA63064BDB683C
:10036000002B05D0044BDA68034B1B69181C90471F
:10037000BD4680BD000003403806002080B500AFB8
:10038000194B1B681B0C1A1C01231340DBB2012BF9
:100390000FD1154B1A68802149020A431A60134B8A
:1003A0009B69002B05D0114B9A69104BDB69181C17
:1003B00090470D4BDB6BDB0A1A1C01231340DBB2A9
:1003C000012B0FD1084BDA6B802109010A43DA6354
:1003D000064B1B6A002B05D0044B1A6A034B5B6A61
:1003E000181C9047BD4680BD0040034038060020E1
:1003F00080B500AF194B1B681B0C1A1C012313405E
:10040000DBB2012B0FD1154B1A68802149020A4338
:100410001A60134BDB6A002B05D0114BDA6A104BC4
:100420001B6B181C90470D4BDB6BDB0A1A1C01235E
:100430001340DBB2012B0FD1084BDA6B802109018D
:100440000A43DA63064B5B6B002B05D0044B5A6BF7
:10045000034B9B6B181C9047BD4680BD00001340AA
:100460003806002080B500AF194B1B681B0C1A1C06
:1004700001231340DBB2012B0FD1154B1A688021E9
:1004800049020A431A60134B1B6C002B05D0114B19
:100490001A6C104B5B6C181C90470D4BDB6BDB0A26
:1004A0001A1C01231340DBB2012B0FD1084BDA6B6E
:1004B000802109010A43DA63064B9B6C002B05D0AF
:1004C000044B9A6C034BDB6C181C9047BD4680BDF7
:1004D000004013403806002090B585B000AF041CE2
:1004E000081C111C3B60FB1D221C1A70BB1D021C4A
:1004F0001A707B1D0A1C1A70FB1D1A78D949131C2F
:100500009B009B189B005B5C002B01D0D64BFFE14E
:100510003B68002B02DD3B68202B01DDD34BF7E16C
:10052000FB1D1B78002B13D1D14B9A688021490108
:100530000A439A60A023DB05DA68802149010A4357
:10054000DA60A023DB05DA68CA490A40DA6042E0D3
:10055000FB1D1B78012B13D1C54B9A6880218901A3
:100560000A439A60A023DB05DA68802189010A43E7
:10057000DA60A023DB05DA68BF490A40DA602AE0C6
:10058000FB1D1B78022B13D1B94B9A688021C9013E
:100590000A439A60A023DB05DA688021C9010A4377
:1005A000DA60A023DB05DA68B4490A40DA6012E0B9
:1005B000AF4B9A68802109020A439A60A023DB05A9
:1005C000DA68802109020A43DA60A023DB05DA68D1
:1005D000AB490A40DA6080235B02FB6006E0FB68FF
:1005E0005A1EFA60002B01DCA64B91E1FB1D1A7824
:1005F000A54B9200D3581B681A1C01231340DBB291
:10060000012BECD0FB1D1A789649131C9B009B18FC
:100610009B0001225A54FB1D1A789249131C9B001F
:100620009B189B00CB1800225A60FB1D1A788D493D
:10063000131C9B009B189B00CB18083300221A60E8
:10064000FB1D1A788749131C9B009B189B00CB1835
:10065000083300225A60FB1D1A788249131C9B0044
:100660009B189B00CB18103300221A603B68202B8C
:1006700001D100233B60FB1D1A78834B9200D358B5
:100680003A68D2B2111C1F220A40D2B21F210A407E
:10069000D2001968F82081430A431A60BB1D1B78F9
:1006A000012B0AD1FB1D1A78774B9200D3581A6898
:1006B0008021C9020A431A6008E0FB1D1A78724BB8
:1006C0009200D3581A6871490A401A60FB1D1A78C3
:1006D0006D4B9200D3589A6808210A439A607B1D9B
:1006E0001B78002B1BD1FB1D1A78674B9200D35847
:1006F0001A6867490A401A60FB1D1A78624B92001B
:10070000D3581A6804218A431A60FB1D1A785E4B7D
:100710009200D3581A6802218A431A60F7E07B1DC1
:100720001B78012B1BD1FB1D1A78574B9200D35815
:100730001A6857490A401A60FB1D1A78524B9200FA
:10074000D3581A6804210A431A60FB1D1A784E4BCD
:100750009200D3581A6802218A431A60D7E07B1DA1
:100760001B78022B1BD1FB1D1A78474B9200D358E4
:100770001A6847490A401A60FB1D1A78424B9200DA
:10078000D3581A6804218A431A60FB1D1A783E4B1D
:100790009200D3581A6802210A431A60B7E07B1D01
:1007A0001B78032B1BD1FB1D1A78374B9200D358B3
:1007B0001A6837490A401A60FB1D1A78324B9200BA
:1007C000D3581A6804210A431A60FB1D1A782E4B6D
:1007D0009200D3581A6802210A431A6097E07B1DE1
:1007E0001B78042B1CD1FB1D1A78274B9200D35881
:1007F0001A68802109010A431A60FB1D1A78224BEE
:100800009200D3581A6804218A431A60FB1D1A7893
:100810001D4B9200D3581A6802218A431A6076E071
:100820007B1D1B78052B35D1FB1D1A78164B9200CA
:10083000D3581A68802109010A431A60FB1D1A78EF
:10084000114B9200D3581A6804210A431A60FB1D09
:100850001A780D4B9200D3581A6802218A431A6005
:1008600055E0C046380600200394FFFF0294FFFFC6
:1008700000020050FFEFFFFFFFDFFFFFFFBFFFFFA2
:10088000FF7FFFFF0494FFFF1C000020FFFFFBFF22
:10089000FFF7FFFF7B1D1B78062B1CD1FB1D1A7871
:1008A0001D4B9200D3581A68802109010A431A602F
:1008B000FB1D1A78184B9200D3581A6804218A43FA
:1008C0001A60FB1D1A78144B9200D3581A68022143
:1008D0000A431A601BE0FB1D1A780F4B9200D35895
:1008E0001A68802109010A431A60FB1D1A780A4B15
:1008F0009200D3581A6804210A431A60FB1D1A7823
:10090000054B9200D3581A6802210A431A6000234B
:10091000181CBD4605B090BD1C00002080B582B0FB
:1009200000AF021CFB1D1A70BB1D0A1C1A70BB1DF8
:100930001B78002B0AD1FB1D1A780A4B9200D35862
:100940001A688021C9000A431A6008E0FB1D1A7862
:10095000044B9200D3581A6803490A401A60BD46F6
:1009600002B080BD1C000020FFFBFFFF80B582B0FD
:1009700000AF021CFB1D1A70BB1D0A1C1A70FB1D68
:100980001A78094B9200D358BA1D127801210A40F7
:10099000D2B201210A4012019968102081430A4312
:1009A0009A60BD4602B080BD1C00002080B582B0B8
:1009B00000AF021CFB1D1A70BB1D0A1C1A70FB1D28
:1009C0001A78094B9200D358BA1D127801210A40B7
:1009D000D2B201210A4092009968042081430A435F
:1009E0009A60BD4602B080BD1C00002080B500AFFB
:1009F000FFF778FC01F0D6F803200E2100F000FB91
:100A000000F008FF031C1A1CA84B1A60A74B1B68B8
:100A1000002B00D132E100F0ABF9A44B1B68DBB234
:100A20000020191C00F05AF901200B2100F0E8FA0F
:100A30009F4B181C00F084FF01200B2100F092FA5C
:100A40009A4B1B68012B19D19A4B0020191C01F0FD
:100A5000C3FA994B0120191C01F0BEFA02200C21A7
:100A600000F0CEFA924B181C00F06AFF02200C2115
:100A700000F078FA8E4B181C00F062FF8B4B1B685D
:100A8000022B1BD101F0CAFA8A4B0020191C01F07D
:100A9000A3FA8A4B0120191C01F09EFA02200D21B5
:100AA00000F0AEFA824B181C00F04AFF02200D2124
:100AB00000F058FA7E4B181C00F042FF7B4B1B687D
:100AC000032B1BD101F0AAFA7A4B0020191C01F06C
:100AD00083FA7B4B0120191C01F07EFA02200E21C3
:100AE00000F08EFA724B181C00F02AFF02200E2133
:100AF00000F038FA6E4B181C00F022FF6B4B1B689D
:100B0000042B1BD101F08AFA6A4B0020191C01F05A
:100B100063FA6C4B0120191C01F05EFA02200F21D0
:100B200000F06EFA624B181C00F00AFF02200F2141
:100B300000F018FA5E4B181C00F002FF5B4B1B68BC
:100B4000052B1BD101F06AFA5A4B0020191C01F049
:100B500043FA5D4B0120191C01F03EFA02200C21E2
:100B600000F04EFA524B181C00F0EAFE02200C2155
:100B700000F0F8F94E4B181C00F0E2FE4B4B1B68DE
:100B8000062B1BD101F04AFA4A4B0020191C01F038
:100B900023FA4E4B0120191C01F01EFA02200D21F0
:100BA00000F02EFA424B181C00F0CAFE02200D2164
:100BB00000F0D8F93E4B181C00F0C2FE3B4B1B68FE
:100BC000072B1BD101F02AFA3A4B0020191C01F027
:100BD00003FA3F4B0120191C01F0FEF902200E21FF
:100BE00000F00EFA324B181C00F0AAFE02200E2173
:100BF00000F0B8F92E4B181C00F0A2FE2B4B1B681E
:100C0000082B1BD101F00AFA2A4B0020191C01F015
:100C1000E3F9304B0120191C01F0DEF902200F210D
:100C200000F0EEF9224B181C00F08AFE02200F2182
:100C300000F098F91E4B181C00F082FE1B4B1B683D
:100C4000092B1BD101F0EAF91A4B0020191C01F005
:100C5000C3F9214B0120191C01F0BEF902200C211F
:100C600000F0CEF9124B181C00F06AFE02200C2195
:100C700000F078F90E4B181C00F062FE01200F21E5
:100C800000F098F9031E08D102200C2100F0B8F9F9
:100C9000074B181C00F054FE07E002200C2100F066
:100CA00061F9034B181C00F04BFEA9E6BC060020BE
:100CB00040420F0058200000682000006C20000017
:100CC0007020000074200000782000007C200000CC
:100CD00080200000842000008820000080B584B0BF
:100CE00000AF021CFB1D1A70BB1D0A1C1A70BB1D35
:100CF0001A780F23FB181D498A5C1A700E23FB1803
:100D000000221A7022E00F23FB181B7801221340E7
:100D100007D00E23FB181B780420191C00F022F9C1
:100D200006E00E23FB181B780420191C00F068F95C
:100D30000F23FB180F22BA18127852081A700E23CC
:100D4000FB181A780E23FB1801321A700E23FB18B9
:100D50001B78072BD7D9FB1D1B7804330220191CE5
:100D600000F000F9BD4604B080BDC0462C00002054
:100D700080B500AF0220042100F042F902200521D5
:100D800000F03EF90220062100F03AF90220072186
:100D900000F036F9BD4680BD80B582B000AF0F4B84
:100DA0001B6A7B600E4B1B6A3B603B680D4A13401D
:100DB0003B600A4B7A681A62094B3A681A620A4B1E
:100DC0001B68002B06D0084B1B6879683A68081C22
:100DD000111C9847BD4602B080BDC046004000507F
:100DE00040400050FF3FFFFF8806002080B584B0E0
:100DF00000AF0F4B1B6AFB600E4B1B6ABB600E4BB8
:100E00001B6A7B600A4BFA681A620A4BBA681A625C
:100E1000094B7A681A62094B1B68002B05D0074BF7
:100E20001B68F868B9687A689847BD4604B080BD09
:100E300080400050C0400050004100508C0600200F
:100E400080B500AF064B8022D2011A62054B1B68A9
:100E5000002B02D0034B1B689847BD4680BDC0469F
:100E6000404000509006002080B500AF064B802225
:100E700012021A62054B1B68002B02D0034B1B6841
:100E80009847BD4680BDC0464040005094060020B3
:100E900080B584B000AF3960111CFB1D021C1A70B4
:100EA000BB1D0A1C1A703B68002B02DB3B68102B31
:100EB00001DD2A4B4EE0FB1D1B789B01284A94461E
:100EC0006344FB60BB1D1B78002B07D0BB1D1B7848
:100ED000012B03D0BB1D1B78022B29D1FB68FA68BC
:100EE00012683968490003208840011CC9430A4040
:100EF0001A60BB1D1B78012B0AD1FB68FA681268C7
:100F00003968490001208840011C0A431A600EE03C
:100F1000BB1D1B78022B0AD1FB68FA68126839687E
:100F2000490002208840011C0A431A6011E010E0C9
:100F3000BB1D1B78032B0AD1FB68FA68126839685D
:100F4000490003208840011C0A431A6001E0034B5A
:100F500000E00023181CBD4604B080BD0189FFFFDE
:100F60000040005080B584B000AF021C3960FB1D0A
:100F70001A703B68002B02DB3B68102B01DD0B4B2A
:100F800010E0FB1D1B789B01094A94466344FB60FB
:100F9000FB689B6801213A6891400A1C1A43FB6870
:100FA0009A600023181CBD4604B080BD0189FFFF74
:100FB0000040005080B584B000AF021C3960FB1DBA
:100FC0001A703B68002B02DB3B68102B01DD0A4BDB
:100FD0000EE0FB1D1B789B01084A94466344FB60AE
:100FE000FB681A683B68DA40131C1A1C0123134083
:100FF000181CBD4604B080BD0189FFFF10400050A1
:1010000080B584B000AF021C3960FB1D1A703B68CC
:10101000002B02DB3B68102B01DD0C4B11E0FB1DAC
:101020001B789B010A4A94466344FB60FB689B68FB
:1010300001213A6891400A1CD2431A40FB689A6029
:101040000023181CBD4604B080BDC0460189FFFFC7
:101050000040005080B584B000AF021C3960FB1D19
:101060001A70FB1D1B789B01094A94466344FB6080
:10107000FB68FA6812683968103101208840011C49
:10108000C9430A401A600023181CBD4604B080BD45
:101090000440005080B584B000AF021C3960FB1DD5
:1010A0001A70FB1D1B789B010B4A94466344FB603E
:1010B000FB68FA681268012039688840011C0A43FD
:1010C0001A60064B1A6820210A431A600023181C74
:1010D000BD4604B080BDC046144000508041005061
:1010E00080B582B000AF78600A1CFB1C1A707B6868
:1010F0000F2B01D9114B1CE0114B7A68D2B2111C95
:101100000F220A40D2B20F210A4019680F208143F2
:101110000A431A600A4BFA1C127801210A40D2B223
:1011200001210A4012011968102081430A431A6004
:101130000023181CBD4602B080BDC0460189FFFFD8
:101140008041005080B584B000AF021CFB1D1A70B6
:10115000FB1D1B783D2B00D927E39A00DA4BD318EF
:101160001B689F46D94B00221A60D94B00221A6097
:10117000D84B00221A60D84B00221A60D74B0022AD
:101180001A6014E3D24BD24A1268802149010A4303
:101190001A60D34BD24A12688021C9000A431A60F0
:1011A000CF4BCF4A1268CF490A401A60FFE2C74BC3
:1011B000C64A1268C02189000A431A60F7E2C34B8D
:1011C000C24A1268C02109010A431A60C44BC44ACA
:1011D0001268C4490A401A60E9E2BE4BBD4A12686F
:1011E0000F210A431A60B94BB84A126880210902DC
:1011F0000A431A60BA4BBA4A1268F82189000A43B6
:101200001A60D4E2B44BB44A1268C0210A431A608F
:10121000CDE2FB1D1B78062B04D10F23FB18062201
:101220001A7003E00F23FB180E221A70A94BA94A6B
:1012300012680F217918097803208840011C0A439D
:101240001A60A74BA64A1268A6490A401A60AEE285
:10125000A04BA04A12680F210A431A60A04BA04A73
:101260001268A1490A401A60A1E2994B984A126893
:101270008021C9000A431A60994B994A12680121DA
:101280000A431A6093E2934B924A126830210A4350
:101290001A608CE28F4B8F4A1268F02109010A43D1
:1012A0001A608F4B8E4A12688E490A401A607EE29D
:1012B000874B874A1268802189000A431A60884B4D
:1012C000874A126802210A431A6070E2814B814A00
:1012D0001268C02189010A431A6068E27E4B7E4A87
:1012E00012680F210A431A6061E2784B774A12684C
:1012F00080210A431A607A4B794A126804210A4312
:101300001A60774B764A126876490A401A604EE2B4
:10131000714B714A126830210A431A6047E26E4BE2
:101320006D4A1268F02109010A431A603FE2684BD6
:10133000674A12688021C9010A431A60684B684AEB
:10134000126808210A431A6031E2634B624A12684C
:10135000C02189010A431A6029E25E4B5D4A126886
:101360000F210A431A6022E25B4B5B4A126802219A
:101370000A431A601BE2584B574A126804210A4379
:101380001A6014E2564B564A126804218A431A60C6
:10139000534B534A126853490A401A604B4B4B4A0D
:1013A0001268F91D0978173901208840011C0A4389
:1013B0001A60FCE14A4B4A4A126808218A431A60C3
:1013C000434B434A1268F91D0978113901208840BE
:1013D000011C0A431A60EAE13D4B3D4A1268802134
:1013E00049000A431A60E2E1394B394A1268802108
:1013F00089000A431A603A4B394A126802218A432B
:101400001A60D4E1324B324A12688021C9000A4383
:101410001A60334B324A126801218A431A60C6E1CE
:101420002B4B2B4A1268802109010A431A602C4B6E
:101430002B4A126810218A431A60B8E1244B244ACF
:101440001268802109020A431A60254B244A126857
:10145000802149040A431A60A9E1204B1F4A1268FF
:1014600020210A431A601E4B1D4A126880218904FC
:101470000A431A609BE1164B154A126804210A437D
:101480001A60174B164A12688021C9040A431A6071
:101490008DE10F4B0E4A126808210A431A60104B67
:1014A0000F4A1268802109050A431A607FE1FB1D7B
:1014B0001B78282B1AD9FB1D1B782B2B16D80F2332
:1014C000FB1800221A7015E08C200000300000503C
:1014D00034000050380000503C00005040000050E4
:1014E00050000050FFF7FFFF1FFEFFFF0F23FB1808
:1014F00004221A70FB1D1B78292B03D0FB1D1B78BF
:101500002C2B11D1AC4BAC4A12680F2179180978F9
:101510000F208840011C0A431A60A84BA74A126892
:10152000A7490A401A602EE0FB1D1B782A2B03D026
:10153000FB1D1B782D2B0BD19F4B9F4A12680F214F
:101540007918097803208840011C0A431A601AE0C0
:10155000FB1D1B782B2B03D0FB1D1B782E2B12D1D0
:10156000954B954A12680F217918097802310320AA
:101570008840011C0A431A60904B904A12689049B7
:101580000A401A6013E112E18E4B8E4A1268C021A4
:1015900009020A431A600AE1FB1D1B78302B07D1B0
:1015A000894B894A1268C02189010A431A600AE0FE
:1015B000854B854A1268F91D097828390120884031
:1015C000011C0A431A607D4B7C4A12687C490A4020
:1015D0001A60ECE0FB1D1B78312B13D17A4B7A4A51
:1015E0001268C02109020A431A60744B734A1268D8
:1015F00076490A401A60714B704A126870490A4075
:101600001A601CE0704B704A1268F91D097828397D
:1016100001208840011C0A431A60FB1D1B78362BF1
:1016200006D1664B654A126865490A401A6006E0B1
:10163000624B624A126865490A401A60B7E0B6E038
:10164000FB1D1B78322B13D15B4B5B4A1268802148
:1016500009010A431A60594B584A126810210A437B
:101660001A605B4B5A4A126820210A431A6018E03C
:10167000FB1D1B78382B0DD14F4B4F4A1268802130
:1016800009010A431A604D4B4C4A126810210A4363
:101690001A6006E04E4B4E4A126820210A431A6037
:1016A00085E084E0FB1D1B78332B06D1484B484A6C
:1016B000126803210A431A6011E0FB1D1B783A2BC4
:1016C00006D1434B424A126801210A431A6006E0E0
:1016D0003F4B3F4A126802210A431A6067E066E006
:1016E000354B354A12680C210A431A60334B334A92
:1016F0001268C021C9010A431A60334B324A12688A
:1017000034490A431A602D4B2C4A1268FF21090400
:101710000A431A60FB1D1B783C2B17D1264B264A27
:1017200012680C218A431A60244B244A12682A4901
:101730000A401A60244B244A126828490A401A6059
:101740001E4B1E4A126826490A401A601B4B1B4A50
:101750001268C02149010A431A60224B214A1268CB
:10176000802149000A431A60174B174A1268C021AA
:1017700009010A431A60104B0F4A1268C0210A433C
:101780001A60114B104A1268C0210A431A60154BA7
:10179000144A126814490A431A60074B064A126831
:1017A000C02189010A431A6001E0104B00E00023C8
:1017B000181CBD4604B080BD3400005050000050DD
:1017C000FFF7FFFF3C00005030000050FFFDFFFF1F
:1017D000400000503E700000FF9FFFFFC18FFFFFE1
:1017E000FFFF00FF38000050C0C000000189FFFF6C
:1017F00080B582B000AF00237B6002E07B680133DC
:101800007B607B68024A9342F8DDBD4602B080BD32
:10181000E703000080B582B000AF3B1C00221A60D5
:101820003B1C3B221A703B1C3D225A703B1C3E2243
:101830009A70FB1D00221A7051E0FB1D1A78BB1D27
:10184000391C8A5C1A707B1D00221A701BE0BB1DBC
:101850001B780122134006D07B1D1B780020191C29
:10186000FFF780FB05E07B1D1B780020191CFFF7AC
:10187000C7FBBB1DBA1D127852081A707B1D1A785F
:101880007B1D01321A707B1D1B78052BDFD9FFF7FA
:10189000AFFF00200321FFF78DFB031E04D1FB1DCA
:1018A0001B780133DBB21FE000200421FFF782FB2D
:1018B000031E04D1FB1D1B780433DBB214E00020AF
:1018C0000521FFF777FB031E04D1FB1D1B780733AF
:1018D000DBB209E0FB1D1A78FB1D01321A70FB1DFB
:1018E0001B78022BA9D90023181CBD4602B080BD6D
:1018F00080B500AFA023DB059A6910210A439A61E5
:10190000044B1B68002B02D0024B1B689847BD4656
:1019100080BDC0469806002080B500AF064B1A680F
:1019200040210A431A60054B1B68002B02D0034B71
:101930001B689847BD4680BD000200509C060020F1
:1019400080B582B000AF78600A4A0B4B1B6879689B
:101950004B435360074B00229A60064B05221A60E6
:10196000C046044B1A6880235B021340F9D0BD4681
:1019700002B080BD10E000E004000020B0B582B0ED
:1019800000AF051C0C1C101C191CFB1D2A1C1A7016
:10199000BB1D221C1A707B1D021C1A703B1D0A1CE9
:1019A0001A70A023DB05DA68802149050A43DA6052
:1019B000A023DB05DA6830490A40DA602F4B3A1D74
:1019C000127803210A40D2B203210A4092005969D9
:1019D0000C2081430A435A61284B1822BA18127806
:1019E000FF210A4012049969254801400A439A617F
:1019F000224B9A68802149050A439A60214B1A6A52
:101A000001210A431A62FB1D1B78002B05D11D4BD7
:101A10001A6A1D490A401A6205E01A4B1A6A8021A7
:101A2000C9000A431A62BB1D1B78002B05D1154B58
:101A30001A6A0C218A431A6210E0BB1D1B78012B25
:101A400007D1104B1A6A0C218A4308210A431A62F3
:101A500004E00C4B1A6A0C210A431A62094B7A1DE6
:101A60001278FF210A40596AFF2081430A435A62D3
:101A7000BD4602B0B0BDC046FFFFFFEF0002005000
:101A8000FFFF00FF00000E40FFFBFFFF80B582B0AC
:101A900000AF021CFB1D1A70104BFA1D12780321B7
:101AA0000A40D2B203210A401202596A0C4801408E
:101AB0000A435A62FB1D1B78022B06D1A023DB05CB
:101AC000DA6901210A43DA6105E0A023DB05DA695E
:101AD00001218A43DA61BD4602B080BD00000E409C
:101AE000FFFCFFFF80B500AF284B1B6B1A1C0123C6
:101AF0001340DBB2012B11D1254B1B68002B05D005
:101B0000234B1A68234B1B68181C9047224B224A10
:101B1000126807218A4301210A431A601B4B1B6B81
:101B20005B081A1C01231340DBB2012B11D11B4BA4
:101B30001B68002B05D0194B1A68164B5B68181CE4
:101B40009047154B144A126807218A4302210A4321
:101B50001A600E4B1B6B9B081A1C01231340DBB24F
:101B6000012B11D10E4B1B68002B05D00C4B1A68B2
:101B7000084B9B68181C9047074B074A12680721BF
:101B80008A4304210A431A60BD4680BD00000E400E
:101B9000A0060020AC06002030000E40A406002065
:101BA000A806002080B500AF714B9A688021090219
:101BB0000A439A60A023DB05DA68802109020A4300
:101BC000DA60A023DB05DA686A490A40DA60A023FC
:101BD000DB05DA6B802149000A43DA63A023DB05C9
:101BE000DA6B802189000A43DA63A023DB05DA6B14
:101BF000802109010A43DA635F4BDB681A688021A0
:101C000009010A431A605C4BDB681A68F8218A43B1
:101C100048210A431A60584BDB681A6804210A43BA
:101C20001A60554BDB685A68120C120403210A43F0
:101C30005A60514BDB689A6803218A4301210A43A9
:101C40009A604D4BDB68EB221A624B4BDB681A68DB
:101C500001210A431A60C046474BDB681B681A1C07
:101C600001231340DBB2012BF6D0434BDB689A68AB
:101C700003218A439A60404BDB689A6803218A43B8
:101C800001210A439A603C4BDB6881221A623A4B7D
:101C9000DB681A6801210A431A60C046364BDB68CC
:101CA0001B681A1C01231340DBB2012BF6D0324B08
:101CB000DB68A0221A62304BDB681A6801210A43F4
:101CC0001A60C0462C4BDB681B681A1C01231340AA
:101CD000DBB2012BF6D0284BDB689A6803218A43DC
:101CE0009A60254BDB689A6803218A4301210A43E5
:101CF0009A60214BDB68C0221A621F4BDB681A68AE
:101D000001210A431A60C0461B4BDB681B681A1C82
:101D100001231340DBB2012BF6D0174BDB689A6826
:101D200003218A439A60144BDB689A6803218A4333
:101D300001210A439A60104BDB68AF221A620E4BF6
:101D4000DB681A6801210A431A60C0460A4BDB6847
:101D50001B681A1C01231340DBB2012BF6D0064B83
:101D6000DB689A6803218A439A60BD4680BDC046FD
:101D700000020050FF7FFFFF2806002080B582B0E0
:101D800000AF021CFB1D1A70144BDB689A6803211C
:101D90008A4301210A439A60104BDB68FA1D1278CE
:101DA000802149000A431A620C4BDB681A68012142
:101DB0000A431A60C046094BDB681B681A1C0123E2
:101DC0001340DBB2012BF6D0044BDB689A68032189
:101DD0008A439A60BD4602B080BDC04628060020F6
:101DE00080B582B000AF021CFB1D1A70BB1D0A1C1F
:101DF0001A703C4BDB689A6803218A4301210A432D
:101E00009A60384BDB68FA1D1278502149420A4328
:101E1000D2B21A62334BDB681A6801210A431A6096
:101E2000C046304BDB681B681A1C01231340DBB231
:101E3000012BF6D02B4BDB689A6803218A439A600A
:101E4000284BDB689A6803218A4301210A439A6080
:101E5000244BDB68BA1D12781209D2B2111C0F2272
:101E60000A4010210A431A621E4BDB681A680121DE
:101E70000A431A60C0461B4BDB681B681A1C01230F
:101E80001340DBB2012BF6D0164BDB689A680321B6
:101E90008A439A60134BDB689A6803218A430121C5
:101EA0000A439A600F4BDB68BA1D12780F210A4073
:101EB0001A620C4BDB681A6801210A431A60C0469B
:101EC000084BDB681B681A1C01231340DBB2012B93
:101ED000F6D0044BDB689A6803218A439A60BD46BA
:101EE00002B080BD2806002090B587B000AF041C6A
:101EF000081C111CFB1D221C1A70BB1D021C1A7031
:101F00007B1D0A1C1A7000237B6100233B617B1D33
:101F10001B78203B1B013B6100237B6124E0FB1D00
:101F20001B78DB18D9B2BB1D1B78082252425343E1
:101F3000DAB27B69DBB2D31ADBB27F3BDBB2081CBF
:101F4000191CFFF74DFF3A697B69D2180F23FB1864
:101F500020498A5C1A700F23FB181B78181CFFF7A6
:101F60000DFF7B6901337B617B69072BD7DD002384
:101F70007B6128E0FB1D1B78DB18DBB20133D9B293
:101F8000BB1D1B78082252425343DAB27B69DBB295
:101F9000D31ADBB27F3BDBB2081C191CFFF720FF12
:101FA0003A697B69D31808331A1C0F23FB180949B7
:101FB0008A5C1A700F23FB181B78181CFFF7DEFED3
:101FC0007B6901337B617B69072BD3DDBD4607B09D
:101FD00090BDC0463800002080B584B000AF021C20
:101FE0003960FB1D1A700023FB60FB68D9B23B68A7
:101FF0005A1C3A601A78FB1D1B78181CFFF774FFF7
:10200000FB680133FB60FB680F2B00DD03E03B68DE
:102010001B78002BE9D1BD4604B080BD80B582B0ED
:1020200000AF00237B6000200021FFF7D9FE0023D2
:102030007B6005E00020FFF7A1FE7B6801337B6039
:102040007B68044A9342F5DD0F20FFF797FEBD46FB
:1020500002B080BD1F040000486173696C6E796135
:10206000206164616C616800310000003200000092
:10207000330000003400000035000000360000008E
:102080003700000038000000390000006411000033
:1020900084110000AE110000BE110000DA11000032
:1020A0000412000012120000121200005012000070
:1020B0006A1200008612000094120000B0120000A4
:1020C000CC120000DC120000EA1200001013000025
:1020D0001E1300002E1300004A1300005A130000C4
:1020E00068130000761300009C130000901300009A
:1020F0009013000090130000901300009013000054
:102100009013000084130000B4130000C0130000FB
:10211000D8130000E813000004140000201400008D
:102120003C1400005A1400007614000092140000C1
:10213000AE140000AE140000AE140000AE14000097
:10214000AE140000AE1400008815000098150000C1
:10215000D415000040160000A416000098150000D9
:1021600098150000D4150000D4150000401600009A
:1021700040160000A4160000A4160000141700006A
:04218000E016000065
:102184000080510116000000001BB7000080000011
:10219400008051011027000000805101000003401D
:1021A40000400340000013400040134082EE074605
:1021B4006A5212E602620000000000000000000003
:1021C4000000000000000000F0000000000000001B
:1021D400CF0000000000000000000000000000002C
:1021E400F00000F000000000000000C030C030002B
:1021F400C839CF390F090100E01010F81010600041
:10220400304142FF42443800C02010E020E0180072
:1022140001C2310C7388443800E01010E000000063
:102224007885828D70A29E420000000000000000AC
:10223400F000000000000000C030080400000000AE
:102244001F60800000000000040830C0000000008F
:102254000080601F0000000000000000000000007B
:102264004428FE2844000000000000800000000014
:10227400080808FF0808080000000000000000002B
:10228400B07000000000000000000000000000002A
:10229400808080800000000000000000000000003A
:1022A400C0C00000000000000000807000000000BA
:1022B400E01C030000000000C020101020C000003B
:1022C4003F408080403F000020F0000000000000FC
:1022D40080FF8000000000006010101020C000008B
:1022E400C0A0908886C1000020101010E0000000FB
:1022F400808082834438000000008060F000000089
:1023040018161110FF10000000F01010101000003B
:1023140080818181423C0000804020101010000028
:102324003F428181423C0000701010109070000008
:102334000000E01C03000000C020101020C00000BA
:102344003845828245380000C020101020C00000AB
:1023540083848848241F000000000000000000005F
:10236400C3C3000000000000C0C000000000000063
:10237400B070000000000000000000000000000039
:1023840010282844448200000000000000000000DF
:1023940088888888888888880000000000000000F9
:1023A4008244442828100000E010101020C00000CF
:1023B4000000D80601000000C02010909010A0C0BA
:1023C4003F408F90908F505F00008070800000002D
:1023D40080F08F088FF0800010F010101020C000E3
:1023E40080FF828282453800C020101010207000C7
:1023F4003F4080808080400010F01010106080000A
:1024040080FF808080601F0010F01010101070009A
:1024140080FF82828287E00010F01010101070009C
:1024240080FF820202070000C0201010207000000C
:102434003F408080847C040010F0100010F01000F5
:1024440080FF820282FF800010F010000000000074
:1024540080FF800000000000000010F01000000069
:102464004080807F0000000010F010805030100089
:1024740080FF830CB0C0800010F01000000000004A
:1024840080FF808080C0200010F0800080F0100069
:1024940080FF833C83FF800010F0C00010F0100028
:1024A40080FF800F30FF00008060101010608000FB
:1024B4001F60808080601F0010F010101020C0008A
:1024C40080FF840404020100E01804040418E000FE
:1024D400071820206098870010F010101020C0000A
:1024E40080FF840C34C28100C020101010207000C2
:1024F400E041828284483000301010F01010300027
:10250400000080FF8000000010F0100010F01000A8
:10251400007F8080807F000010F0100010F0100019
:1025240000011EE01E01000010F010C010F01000A9
:10253400000FF00FF00F000010709000907010006A
:1025440080E0990699E0800010709000907010006F
:10255400000083FC830000007010101010D03000C5
:10256400C0B088868180E000FC0404000000000004
:10257400FF80800000000000708000000000000068
:1025840000031CE0000000000404FC000000000044
:102594008080FF0000000000000000000000000038
:1025A4008060180618608000000000000000000031
:1025B4008080808080808080000000000000000017
:1025C40020604080000000000000000000000000C7
:1025D40066918949FE80000010F0000000000000B0
:1025E400007F8181423C00000000000000000000E8
:1025F4003C4281818142000000000010F000000094
:102604003C4281817F800000000000000000000047
:102614003C4A89898A4C00000000E0101020000028
:102624000181FF81010000008040404080400000A3
:1026340053ACA4A4A340000010F00000000000006C
:1026440080FF0101FE80000000B0000000000000D7
:1026540081FF800000000000000080CC000000002A
:102664004080807F0000000010F0000000000000A7
:1026740080FF9825C381000010F0000000000000D6
:1026840080FF800000000000000000000000000047
:1026940081FE01FE01FE8000000000000000000039
:1026A40081FE0101FE800000000000000000000027
:1026B4003C428181423C0000408040408000000058
:1026C40080FFA020100F00000080404080400000E8
:1026D4000F1020A0FF800000000000000000000098
:1026E40081FF8201010000000000000000000000E2
:1026F400E6498991926700000000C00000000000D4
:1027040001017F8181400000000000000000000002
:10271400017F80817F800000000000000000000035
:10272400010739C039070100000000000000000063
:10273400011FE11CE11F0100000000000000000077
:1027440081E71818E781000040C0400040C0400005
:1027540080814638060100000000000000000000EF
:10276400C3A1918985C3000000F0080000000000A7
:10277400027D800000000000F00000000000000066
:10278400FF0000000000000008F00000000000004E
:10279400807D020000000000000000000000000036
:1027A400C0202060C08080600000034000401340CF
:0827B400000013400040134037
:00000001FF
